{
  "contractName": "CryptoList",
  "abi": [
    {
      "constant": true,
      "inputs": [
        {
          "name": "",
          "type": "uint256"
        }
      ],
      "name": "items",
      "outputs": [
        {
          "name": "id",
          "type": "uint256"
        },
        {
          "name": "seller",
          "type": "address"
        },
        {
          "name": "buyer",
          "type": "address"
        },
        {
          "name": "name",
          "type": "string"
        },
        {
          "name": "description",
          "type": "string"
        },
        {
          "name": "price",
          "type": "uint256"
        },
        {
          "name": "ipfsHash",
          "type": "string"
        }
      ],
      "payable": false,
      "stateMutability": "view",
      "type": "function"
    },
    {
      "anonymous": false,
      "inputs": [
        {
          "indexed": true,
          "name": "_id",
          "type": "uint256"
        },
        {
          "indexed": true,
          "name": "_seller",
          "type": "address"
        },
        {
          "indexed": false,
          "name": "_name",
          "type": "string"
        },
        {
          "indexed": false,
          "name": "_price",
          "type": "uint256"
        },
        {
          "indexed": false,
          "name": "_ipfsHash",
          "type": "string"
        }
      ],
      "name": "LogSellItem",
      "type": "event"
    },
    {
      "anonymous": false,
      "inputs": [
        {
          "indexed": true,
          "name": "_id",
          "type": "uint256"
        },
        {
          "indexed": true,
          "name": "_seller",
          "type": "address"
        },
        {
          "indexed": true,
          "name": "_buyer",
          "type": "address"
        },
        {
          "indexed": false,
          "name": "_name",
          "type": "string"
        },
        {
          "indexed": false,
          "name": "_price",
          "type": "uint256"
        },
        {
          "indexed": false,
          "name": "_ipfsHash",
          "type": "string"
        }
      ],
      "name": "LogBuyItem",
      "type": "event"
    },
    {
      "constant": false,
      "inputs": [],
      "name": "kill",
      "outputs": [],
      "payable": false,
      "stateMutability": "nonpayable",
      "type": "function"
    },
    {
      "constant": false,
      "inputs": [
        {
          "name": "_name",
          "type": "string"
        },
        {
          "name": "_description",
          "type": "string"
        },
        {
          "name": "_price",
          "type": "uint256"
        },
        {
          "name": "_ipfsHash",
          "type": "string"
        }
      ],
      "name": "sellItem",
      "outputs": [],
      "payable": false,
      "stateMutability": "nonpayable",
      "type": "function"
    },
    {
      "constant": false,
      "inputs": [],
      "name": "toggleContractActive",
      "outputs": [],
      "payable": false,
      "stateMutability": "nonpayable",
      "type": "function"
    },
    {
      "constant": true,
      "inputs": [],
      "name": "getNumberOfItems",
      "outputs": [
        {
          "name": "",
          "type": "uint256"
        }
      ],
      "payable": false,
      "stateMutability": "view",
      "type": "function"
    },
    {
      "constant": true,
      "inputs": [],
      "name": "getItemsForSale",
      "outputs": [
        {
          "name": "",
          "type": "uint256[]"
        }
      ],
      "payable": false,
      "stateMutability": "view",
      "type": "function"
    },
    {
      "constant": false,
      "inputs": [
        {
          "name": "_id",
          "type": "uint256"
        }
      ],
      "name": "buyItem",
      "outputs": [],
      "payable": true,
      "stateMutability": "payable",
      "type": "function"
    }
  ],
  "bytecode": "0x608060405260008060146101000a81548160ff02191690831515021790555034801561002a57600080fd5b5061104d8061003a6000396000f300608060405260043610610083576000357c0100000000000000000000000000000000000000000000000000000000900463ffffffff168063064ddd04146100885780631385d24c146100f45780633b82fe0e1461010b57806341c0e1b51461020a578063730ef26914610221578063bfb231d21461024c578063e7fb74c71461043e575b600080fd5b34801561009457600080fd5b5061009d61045e565b6040518080602001828103825283818151815260200191508051906020019060200280838360005b838110156100e05780820151818401526020810190506100c5565b505050509050019250505060405180910390f35b34801561010057600080fd5b506101096105d9565b005b34801561011757600080fd5b50610208600480360381019080803590602001908201803590602001908080601f0160208091040260200160405190810160405280939291908181526020018383808284378201915050505050509192919290803590602001908201803590602001908080601f016020809104026020016040519081016040528093929190818152602001838380828437820191505050505050919291929080359060200190929190803590602001908201803590602001908080601f0160208091040260200160405190810160405280939291908181526020018383808284378201915050505050509192919290505050610660565b005b34801561021657600080fd5b5061021f610917565b005b34801561022d57600080fd5b506102366109ac565b6040518082815260200191505060405180910390f35b34801561025857600080fd5b50610277600480360381019080803590602001909291905050506109b6565b604051808881526020018773ffffffffffffffffffffffffffffffffffffffff1673ffffffffffffffffffffffffffffffffffffffff1681526020018673ffffffffffffffffffffffffffffffffffffffff1673ffffffffffffffffffffffffffffffffffffffff168152602001806020018060200185815260200180602001848103845288818151815260200191508051906020019080838360005b8381101561032f578082015181840152602081019050610314565b50505050905090810190601f16801561035c5780820380516001836020036101000a031916815260200191505b50848103835287818151815260200191508051906020019080838360005b8381101561039557808201518184015260208101905061037a565b50505050905090810190601f1680156103c25780820380516001836020036101000a031916815260200191505b50848103825285818151815260200191508051906020019080838360005b838110156103fb5780820151818401526020810190506103e0565b50505050905090810190601f1680156104285780820380516001836020036101000a031916815260200191505b509a505050505050505050505060405180910390f35b61045c60048036038101908080359060200190929190505050610c00565b005b606080600080606060006002546040519080825280602002602001820160405280156104995781602001602082028038833980820191505090505b50945060009350600192505b6002548311151561054e5760006001600085815260200190815260200160002060020160009054906101000a900473ffffffffffffffffffffffffffffffffffffffff1673ffffffffffffffffffffffffffffffffffffffff161415610541576001600084815260200190815260200160002060000154858581518110151561052a57fe5b906020019060200201818152505083806001019450505b82806001019350506104a5565b8360405190808252806020026020018201604052801561057d5781602001602082028038833980820191505090505b509150600090505b838110156105ce57848181518110151561059b57fe5b9060200190602002015182828151811015156105b357fe5b90602001906020020181815250508080600101915050610585565b819550505050505090565b6000809054906101000a900473ffffffffffffffffffffffffffffffffffffffff1673ffffffffffffffffffffffffffffffffffffffff163373ffffffffffffffffffffffffffffffffffffffff1614151561063457600080fd5b600060149054906101000a900460ff1615600060146101000a81548160ff021916908315150217905550565b60026000815480929190600101919050555060e06040519081016040528060025481526020013373ffffffffffffffffffffffffffffffffffffffff168152602001600073ffffffffffffffffffffffffffffffffffffffff168152602001858152602001848152602001838152602001828152506001600060025481526020019081526020016000206000820151816000015560208201518160010160006101000a81548173ffffffffffffffffffffffffffffffffffffffff021916908373ffffffffffffffffffffffffffffffffffffffff16021790555060408201518160020160006101000a81548173ffffffffffffffffffffffffffffffffffffffff021916908373ffffffffffffffffffffffffffffffffffffffff160217905550606082015181600301908051906020019061079e929190610f7c565b5060808201518160040190805190602001906107bb929190610f7c565b5060a0820151816005015560c08201518160060190805190602001906107e2929190610f7c565b509050503373ffffffffffffffffffffffffffffffffffffffff166002547f4bfe5c2f2b2f59a62d81def76d8030a6c25cfb3111f5e1de24b699610657c73e868585604051808060200184815260200180602001838103835286818151815260200191508051906020019080838360005b8381101561086e578082015181840152602081019050610853565b50505050905090810190601f16801561089b5780820380516001836020036101000a031916815260200191505b50838103825284818151815260200191508051906020019080838360005b838110156108d45780820151818401526020810190506108b9565b50505050905090810190601f1680156109015780820380516001836020036101000a031916815260200191505b509550505050505060405180910390a350505050565b6000809054906101000a900473ffffffffffffffffffffffffffffffffffffffff1673ffffffffffffffffffffffffffffffffffffffff163373ffffffffffffffffffffffffffffffffffffffff1614151561097257600080fd5b6000809054906101000a900473ffffffffffffffffffffffffffffffffffffffff1673ffffffffffffffffffffffffffffffffffffffff16ff5b6000600254905090565b60016020528060005260406000206000915090508060000154908060010160009054906101000a900473ffffffffffffffffffffffffffffffffffffffff16908060020160009054906101000a900473ffffffffffffffffffffffffffffffffffffffff1690806003018054600181600116156101000203166002900480601f016020809104026020016040519081016040528092919081815260200182805460018160011615610100020316600290048015610ab45780601f10610a8957610100808354040283529160200191610ab4565b820191906000526020600020905b815481529060010190602001808311610a9757829003601f168201915b505050505090806004018054600181600116156101000203166002900480601f016020809104026020016040519081016040528092919081815260200182805460018160011615610100020316600290048015610b525780601f10610b2757610100808354040283529160200191610b52565b820191906000526020600020905b815481529060010190602001808311610b3557829003601f168201915b505050505090806005015490806006018054600181600116156101000203166002900480601f016020809104026020016040519081016040528092919081815260200182805460018160011615610100020316600290048015610bf65780601f10610bcb57610100808354040283529160200191610bf6565b820191906000526020600020905b815481529060010190602001808311610bd957829003601f168201915b5050505050905087565b600080600254111515610c1257600080fd5b600082118015610c2457506002548211155b1515610c2f57600080fd5b60016000838152602001908152602001600020905060008160020160009054906101000a900473ffffffffffffffffffffffffffffffffffffffff1673ffffffffffffffffffffffffffffffffffffffff16141515610c8d57600080fd5b8060010160009054906101000a900473ffffffffffffffffffffffffffffffffffffffff1673ffffffffffffffffffffffffffffffffffffffff163373ffffffffffffffffffffffffffffffffffffffff1614151515610cec57600080fd5b806005015434141515610cfe57600080fd5b338160020160006101000a81548173ffffffffffffffffffffffffffffffffffffffff021916908373ffffffffffffffffffffffffffffffffffffffff1602179055508060010160009054906101000a900473ffffffffffffffffffffffffffffffffffffffff1673ffffffffffffffffffffffffffffffffffffffff166108fc349081150290604051600060405180830381858888f19350505050158015610dab573d6000803e3d6000fd5b508060020160009054906101000a900473ffffffffffffffffffffffffffffffffffffffff1673ffffffffffffffffffffffffffffffffffffffff168160010160009054906101000a900473ffffffffffffffffffffffffffffffffffffffff1673ffffffffffffffffffffffffffffffffffffffff16837f970bb8da31a3485d71015671fed662acaf43285ea3bdb81834aacc7b6e48204284600301856005015486600601604051808060200184815260200180602001838103835286818154600181600116156101000203166002900481526020019150805460018160011615610100020316600290048015610ee45780601f10610eb957610100808354040283529160200191610ee4565b820191906000526020600020905b815481529060010190602001808311610ec757829003601f168201915b5050838103825284818154600181600116156101000203166002900481526020019150805460018160011615610100020316600290048015610f675780601f10610f3c57610100808354040283529160200191610f67565b820191906000526020600020905b815481529060010190602001808311610f4a57829003601f168201915b50509550505050505060405180910390a45050565b828054600181600116156101000203166002900490600052602060002090601f016020900481019282601f10610fbd57805160ff1916838001178555610feb565b82800160010185558215610feb579182015b82811115610fea578251825591602001919060010190610fcf565b5b509050610ff89190610ffc565b5090565b61101e91905b8082111561101a576000816000905550600101611002565b5090565b905600a165627a7a723058203c6a23891bf42bb8036633a1e4e35386fd7411980b1b3b9ae0d0dc1f67a373360029",
  "source": "pragma solidity ^0.4.24;\r\n\r\n/// @title A Craigslist inspired Buy & Sell dApp for Ethereum\r\n/// @author Navneet Raghuvanshi\r\n/// @notice A simple Buy & Sell dApp called CryptoList\r\ncontract CryptoList {\r\n    \r\n  // For setting owner\r\n  address private owner;\r\n  \r\n  //Circuit Breaker for pausing the contract\r\n  bool private isPaused = false;\r\n\r\n  // Item Structure\r\n  struct Item {\r\n    uint id;\r\n    address seller;\r\n    address buyer;\r\n    string name;\r\n    string description;\r\n    uint256 price;\r\n\t  string ipfsHash;\r\n  }\r\n\r\n  // Item Tracking\r\n  mapping (uint => Item) public items;\r\n  uint itemCounter;\r\n  \r\n    //\r\n\t// Events\r\n\t//\r\n  event LogSellItem(uint indexed _id, address indexed _seller, string _name, uint256 _price, string _ipfsHash);\r\n  event LogBuyItem(uint indexed _id, address indexed _seller, address indexed _buyer, string _name, uint256 _price, string _ipfsHash);\r\n\r\n\t//\r\n\t// Modifiers\r\n\t//\r\n\r\n/// @dev Create a modifer that checks if the msg.sender is the owner of the contract\r\n  modifier onlyOwner() {\r\n    require(msg.sender == owner);\r\n    _;\r\n  }\r\n\r\n/// @dev Create a modifer that checks if the number of items is more than zero\r\n  modifier counterNotZero() {\r\n    require(itemCounter > 0);\r\n    _;\r\n  }\r\n\r\n/// @dev Create a modifer that checks if the contract is paused\r\n  modifier isHalted() {\r\n    require(isPaused == false);\r\n    _;\r\n  }\r\n\r\n\t// Kill switch to deactivate the contract\r\n/// @dev Create a function that deactivates the contract when owner calls\r\n  function kill() public onlyOwner {\r\n    selfdestruct(owner);\r\n  }\r\n\r\n/// @notice Sell an item \r\n/// @dev Increment itemCounter, store Item and emit LogSellItem event\r\n/// @param _name Item Name (string)\r\n/// @param _description Item Description (string)\r\n/// @param _price Price of the Item (uint256)\r\n/// @param _ipfsHash IPFS Hash of image (string)\r\n  function sellItem(string _name, string _description, uint256 _price, string _ipfsHash) public {\r\n    // Increment item count\r\n    itemCounter++;\r\n\r\n    // store the item\r\n    items[itemCounter] = Item(\r\n      itemCounter,\r\n      msg.sender,\r\n      0x0,\r\n      _name,\r\n      _description,\r\n      _price,\r\n      _ipfsHash\r\n    );\r\n\r\n    emit LogSellItem(itemCounter, msg.sender, _name, _price, _ipfsHash);\r\n  }\r\n\r\n/// @notice Owner can pause the contract\r\n/// @dev Owner can call this function to toggle contract isPaused state\r\n  function toggleContractActive() public onlyOwner {\r\n    isPaused = !isPaused;\r\n  }\r\n    \r\n/// @notice Fetch the number of items in the contract\r\n/// @dev Return itemCounter\r\n  function getNumberOfItems() public view returns (uint) {\r\n    return itemCounter;\r\n  }\r\n\r\n/// @notice Fetch all item IDs still for sale\r\n/// @dev Fetch & Return items from memory\r\n  function getItemsForSale() public view returns (uint[]) {\r\n    // prepare output array\r\n    uint[] memory itemIds = new uint[](itemCounter);\r\n\r\n    uint numberOfItemsForSale = 0;\r\n    // iterate over items\r\n    for(uint i = 1; i <= itemCounter;  i++) {\r\n      // keep the ID if the item is still for sale\r\n      if(items[i].buyer == 0x0) {\r\n        itemIds[numberOfItemsForSale] = items[i].id;\r\n        numberOfItemsForSale++;\r\n      }\r\n    }\r\n\r\n    // copy the itemIds array into a smaller forSale array\r\n    uint[] memory forSale = new uint[](numberOfItemsForSale);\r\n    for(uint j = 0; j < numberOfItemsForSale; j++) {\r\n      forSale[j] = itemIds[j];\r\n    }\r\n    return forSale;\r\n  }\r\n\r\n  // buy an item\r\n/// @notice Buy an item \r\n/// @dev Check for item availablity, match price, transfer payment, emit LogBuyItem event\r\n/// @param _id Item ID (uint)\r\n  function buyItem(uint _id) payable public counterNotZero {\r\n    // we check that the item exists\r\n    require(_id > 0 && _id <= itemCounter);\r\n\r\n    // we retrieve the item\r\n    Item storage item = items[_id];\r\n\r\n    // we check that the Item has not been sold yet\r\n    require(item.buyer == 0X0);\r\n\r\n    // we don't allow the seller to buy his own Item\r\n    require(msg.sender != item.seller);\r\n\r\n    // we check that the value sent corresponds to the price of the Item\r\n    require(msg.value == item.price);\r\n\r\n    // keep buyer's information\r\n    item.buyer = msg.sender;\r\n\r\n    // the buyer can pay the seller\r\n    item.seller.transfer(msg.value);\r\n\r\n    // trigger the event\r\n    emit LogBuyItem(_id, item.seller, item.buyer, item.name, item.price, item.ipfsHash);\r\n  }\r\n}\r\n",
  "sourcePath": "C:\\Users\\nvnt1\\chaindev\\cryptolist\\contracts\\CryptoList.sol",
  "compiler": {
    "name": "solc",
    "version": "0.4.24+commit.e67f0147.Emscripten.clang"
  },
  "schemaVersion": "2.0.1",
  "updatedAt": "2018-08-25T15:47:23.375Z"
}