{
  "contractName": "ImportLibrary",
  "abi": [
    {
      "constant": true,
      "inputs": [
        {
          "name": "a",
          "type": "uint256"
        },
        {
          "name": "b",
          "type": "uint256"
        }
      ],
      "name": "sum",
      "outputs": [
        {
          "name": "",
          "type": "uint256"
        }
      ],
      "payable": false,
      "stateMutability": "pure",
      "type": "function"
    }
  ],
  "bytecode": "0x60d061002f600b82828239805160001a6073146000811461001f57610021565bfe5b5030600052607381538281f30073000000000000000000000000000000000000000030146080604052600436106056576000357c0100000000000000000000000000000000000000000000000000000000900463ffffffff168063cad0899b14605b575b600080fd5b608160048036038101908080359060200190929190803590602001909291905050506097565b6040518082815260200191505060405180910390f35b60008183019050929150505600a165627a7a723058207af7d558e3822e7caa2f86ee1ef1506e9c1a555410cbf44c252a0ed2ebba54900029",
  "source": "pragma solidity 0.4.24;\r\n\r\nlibrary ImportLibrary {\r\n    function sum(uint256 a, uint256 b) public pure returns (uint256) {\r\n        return a + b;\r\n    }\r\n}",
  "sourcePath": "C:\\Users\\nvnt1\\chaindev\\cryptolist\\contracts\\ImportLibrary.sol",
  "compiler": {
    "name": "solc",
    "version": "0.4.24+commit.e67f0147.Emscripten.clang"
  },
  "schemaVersion": "2.0.1",
  "updatedAt": "2018-08-26T15:45:26.939Z"
}