{
  "contractName": "LibraryDemo",
  "abi": [
    {
      "constant": true,
      "inputs": [
        {
          "name": "a",
          "type": "uint256"
        },
        {
          "name": "b",
          "type": "uint256"
        }
      ],
      "name": "thatSum",
      "outputs": [
        {
          "name": "",
          "type": "uint256"
        }
      ],
      "payable": false,
      "stateMutability": "pure",
      "type": "function"
    },
    {
      "constant": true,
      "inputs": [
        {
          "name": "a",
          "type": "uint256"
        },
        {
          "name": "b",
          "type": "uint256"
        }
      ],
      "name": "thisSum",
      "outputs": [
        {
          "name": "",
          "type": "uint256"
        }
      ],
      "payable": false,
      "stateMutability": "pure",
      "type": "function"
    }
  ],
  "bytecode": "0x608060405234801561001057600080fd5b506101d8806100206000396000f30060806040526004361061004c576000357c0100000000000000000000000000000000000000000000000000000000900463ffffffff168063b7a1aaea14610051578063fc365f2a1461009c575b600080fd5b34801561005d57600080fd5b5061008660048036038101908080359060200190929190803590602001909291905050506100e7565b6040518082815260200191505060405180910390f35b3480156100a857600080fd5b506100d160048036038101908080359060200190929190803590602001909291905050506100f4565b6040518082815260200191505060405180910390f35b6000818301905092915050565b600073__ImportLibrary_________________________63cad0899b84846040518363ffffffff167c0100000000000000000000000000000000000000000000000000000000028152600401808381526020018281526020019250505060206040518083038186803b15801561016957600080fd5b505af415801561017d573d6000803e3d6000fd5b505050506040513d602081101561019357600080fd5b81019080805190602001909291905050509050929150505600a165627a7a72305820cb737e95acb36abd07fa3015f89313bbf3678a880ad320fc90992491c6050c4b0029",
  "source": "pragma solidity 0.4.24;\r\n\r\nimport \"./ImportLibrary.sol\";\r\n\r\ncontract LibraryDemo {\r\n    function thatSum(uint256 a, uint256 b) public pure returns (uint256) {\r\n        return ImportLibrary.sum(a, b);\r\n    }\r\n\r\n    function thisSum(uint256 a, uint256 b) public pure returns (uint256) {\r\n        return a + b;\r\n    }\r\n}",
  "sourcePath": "C:\\Users\\nvnt1\\chaindev\\cryptolist\\contracts\\LibraryDemo.sol",
  "compiler": {
    "name": "solc",
    "version": "0.4.24+commit.e67f0147.Emscripten.clang"
  },
  "schemaVersion": "2.0.1",
  "updatedAt": "2018-08-25T15:47:23.367Z"
}